{
  "contractName": "CriminalDataSender",
  "abi": [
    {
      "inputs": [],
      "stateMutability": "nonpayable",
      "type": "constructor"
    },
    {
      "anonymous": false,
      "inputs": [
        {
          "indexed": false,
          "internalType": "uint56",
          "name": "cnic",
          "type": "uint56"
        },
        {
          "indexed": false,
          "internalType": "address",
          "name": "owner",
          "type": "address"
        }
      ],
      "name": "EntityCreated",
      "type": "event"
    },
    {
      "anonymous": false,
      "inputs": [
        {
          "indexed": false,
          "internalType": "uint56",
          "name": "id",
          "type": "uint56"
        }
      ],
      "name": "EntityUpdated",
      "type": "event"
    },
    {
      "inputs": [
        {
          "internalType": "uint56",
          "name": "",
          "type": "uint56"
        }
      ],
      "name": "cnicToID",
      "outputs": [
        {
          "internalType": "uint56",
          "name": "",
          "type": "uint56"
        }
      ],
      "stateMutability": "view",
      "type": "function",
      "constant": true
    },
    {
      "inputs": [],
      "name": "criminalCount",
      "outputs": [
        {
          "internalType": "uint32",
          "name": "",
          "type": "uint32"
        }
      ],
      "stateMutability": "view",
      "type": "function",
      "constant": true
    },
    {
      "inputs": [
        {
          "internalType": "uint56",
          "name": "",
          "type": "uint56"
        }
      ],
      "name": "criminalData",
      "outputs": [
        {
          "components": [
            {
              "internalType": "string",
              "name": "name",
              "type": "string"
            },
            {
              "internalType": "string",
              "name": "fatherName",
              "type": "string"
            },
            {
              "internalType": "uint56",
              "name": "cnic",
              "type": "uint56"
            },
            {
              "internalType": "string",
              "name": "location",
              "type": "string"
            },
            {
              "internalType": "string",
              "name": "gender",
              "type": "string"
            },
            {
              "internalType": "string",
              "name": "dob",
              "type": "string"
            }
          ],
          "internalType": "struct CriminalDataSender.PersonalDetails",
          "name": "personal",
          "type": "tuple"
        },
        {
          "components": [
            {
              "internalType": "uint16",
              "name": "id",
              "type": "uint16"
            },
            {
              "internalType": "enum CriminalDataSender.CrimeSeverity",
              "name": "crimeSeverity",
              "type": "uint8"
            },
            {
              "internalType": "string",
              "name": "offenseDescription",
              "type": "string"
            },
            {
              "internalType": "uint16",
              "name": "offenseCode",
              "type": "uint16"
            },
            {
              "internalType": "string",
              "name": "offenseDate",
              "type": "string"
            },
            {
              "internalType": "uint16",
              "name": "caseId",
              "type": "uint16"
            },
            {
              "internalType": "string",
              "name": "investigationOfficer",
              "type": "string"
            },
            {
              "internalType": "string",
              "name": "courtVerdict",
              "type": "string"
            }
          ],
          "internalType": "struct CriminalDataSender.CrimeDetails",
          "name": "crime",
          "type": "tuple"
        },
        {
          "components": [
            {
              "internalType": "string",
              "name": "prisonLocation",
              "type": "string"
            },
            {
              "internalType": "uint16",
              "name": "prisonId",
              "type": "uint16"
            },
            {
              "internalType": "uint16",
              "name": "tenure",
              "type": "uint16"
            },
            {
              "internalType": "uint16",
              "name": "prisonCode",
              "type": "uint16"
            }
          ],
          "internalType": "struct CriminalDataSender.PrisonDetails",
          "name": "prison",
          "type": "tuple"
        },
        {
          "internalType": "uint256",
          "name": "timeStamp",
          "type": "uint256"
        }
      ],
      "stateMutability": "view",
      "type": "function",
      "constant": true
    },
    {
      "inputs": [
        {
          "internalType": "uint256",
          "name": "",
          "type": "uint256"
        }
      ],
      "name": "criminalIds",
      "outputs": [
        {
          "internalType": "uint56",
          "name": "",
          "type": "uint56"
        }
      ],
      "stateMutability": "view",
      "type": "function",
      "constant": true
    },
    {
      "inputs": [],
      "name": "owner",
      "outputs": [
        {
          "internalType": "address",
          "name": "",
          "type": "address"
        }
      ],
      "stateMutability": "view",
      "type": "function",
      "constant": true
    },
    {
      "inputs": [
        {
          "components": [
            {
              "internalType": "string",
              "name": "name",
              "type": "string"
            },
            {
              "internalType": "string",
              "name": "fatherName",
              "type": "string"
            },
            {
              "internalType": "uint56",
              "name": "cnic",
              "type": "uint56"
            },
            {
              "internalType": "string",
              "name": "location",
              "type": "string"
            },
            {
              "internalType": "string",
              "name": "gender",
              "type": "string"
            },
            {
              "internalType": "string",
              "name": "dob",
              "type": "string"
            }
          ],
          "internalType": "struct CriminalDataSender.PersonalDetails",
          "name": "_personal",
          "type": "tuple"
        },
        {
          "components": [
            {
              "internalType": "uint16",
              "name": "id",
              "type": "uint16"
            },
            {
              "internalType": "enum CriminalDataSender.CrimeSeverity",
              "name": "crimeSeverity",
              "type": "uint8"
            },
            {
              "internalType": "string",
              "name": "offenseDescription",
              "type": "string"
            },
            {
              "internalType": "uint16",
              "name": "offenseCode",
              "type": "uint16"
            },
            {
              "internalType": "string",
              "name": "offenseDate",
              "type": "string"
            },
            {
              "internalType": "uint16",
              "name": "caseId",
              "type": "uint16"
            },
            {
              "internalType": "string",
              "name": "investigationOfficer",
              "type": "string"
            },
            {
              "internalType": "string",
              "name": "courtVerdict",
              "type": "string"
            }
          ],
          "internalType": "struct CriminalDataSender.CrimeDetails",
          "name": "_crime",
          "type": "tuple"
        },
        {
          "components": [
            {
              "internalType": "string",
              "name": "prisonLocation",
              "type": "string"
            },
            {
              "internalType": "uint16",
              "name": "prisonId",
              "type": "uint16"
            },
            {
              "internalType": "uint16",
              "name": "tenure",
              "type": "uint16"
            },
            {
              "internalType": "uint16",
              "name": "prisonCode",
              "type": "uint16"
            }
          ],
          "internalType": "struct CriminalDataSender.PrisonDetails",
          "name": "_prison",
          "type": "tuple"
        }
      ],
      "name": "createEntity",
      "outputs": [],
      "stateMutability": "nonpayable",
      "type": "function"
    },
    {
      "inputs": [
        {
          "internalType": "uint56",
          "name": "_cnic",
          "type": "uint56"
        }
      ],
      "name": "getEntity",
      "outputs": [
        {
          "components": [
            {
              "components": [
                {
                  "internalType": "string",
                  "name": "name",
                  "type": "string"
                },
                {
                  "internalType": "string",
                  "name": "fatherName",
                  "type": "string"
                },
                {
                  "internalType": "uint56",
                  "name": "cnic",
                  "type": "uint56"
                },
                {
                  "internalType": "string",
                  "name": "location",
                  "type": "string"
                },
                {
                  "internalType": "string",
                  "name": "gender",
                  "type": "string"
                },
                {
                  "internalType": "string",
                  "name": "dob",
                  "type": "string"
                }
              ],
              "internalType": "struct CriminalDataSender.PersonalDetails",
              "name": "personal",
              "type": "tuple"
            },
            {
              "components": [
                {
                  "internalType": "uint16",
                  "name": "id",
                  "type": "uint16"
                },
                {
                  "internalType": "enum CriminalDataSender.CrimeSeverity",
                  "name": "crimeSeverity",
                  "type": "uint8"
                },
                {
                  "internalType": "string",
                  "name": "offenseDescription",
                  "type": "string"
                },
                {
                  "internalType": "uint16",
                  "name": "offenseCode",
                  "type": "uint16"
                },
                {
                  "internalType": "string",
                  "name": "offenseDate",
                  "type": "string"
                },
                {
                  "internalType": "uint16",
                  "name": "caseId",
                  "type": "uint16"
                },
                {
                  "internalType": "string",
                  "name": "investigationOfficer",
                  "type": "string"
                },
                {
                  "internalType": "string",
                  "name": "courtVerdict",
                  "type": "string"
                }
              ],
              "internalType": "struct CriminalDataSender.CrimeDetails",
              "name": "crime",
              "type": "tuple"
            },
            {
              "components": [
                {
                  "internalType": "string",
                  "name": "prisonLocation",
                  "type": "string"
                },
                {
                  "internalType": "uint16",
                  "name": "prisonId",
                  "type": "uint16"
                },
                {
                  "internalType": "uint16",
                  "name": "tenure",
                  "type": "uint16"
                },
                {
                  "internalType": "uint16",
                  "name": "prisonCode",
                  "type": "uint16"
                }
              ],
              "internalType": "struct CriminalDataSender.PrisonDetails",
              "name": "prison",
              "type": "tuple"
            },
            {
              "internalType": "uint256",
              "name": "timeStamp",
              "type": "uint256"
            }
          ],
          "internalType": "struct CriminalDataSender.CriminalEntity",
          "name": "",
          "type": "tuple"
        }
      ],
      "stateMutability": "view",
      "type": "function",
      "constant": true
    },
    {
      "inputs": [],
      "name": "getAllCriminals",
      "outputs": [
        {
          "components": [
            {
              "components": [
                {
                  "internalType": "string",
                  "name": "name",
                  "type": "string"
                },
                {
                  "internalType": "string",
                  "name": "fatherName",
                  "type": "string"
                },
                {
                  "internalType": "uint56",
                  "name": "cnic",
                  "type": "uint56"
                },
                {
                  "internalType": "string",
                  "name": "location",
                  "type": "string"
                },
                {
                  "internalType": "string",
                  "name": "gender",
                  "type": "string"
                },
                {
                  "internalType": "string",
                  "name": "dob",
                  "type": "string"
                }
              ],
              "internalType": "struct CriminalDataSender.PersonalDetails",
              "name": "personal",
              "type": "tuple"
            },
            {
              "components": [
                {
                  "internalType": "uint16",
                  "name": "id",
                  "type": "uint16"
                },
                {
                  "internalType": "enum CriminalDataSender.CrimeSeverity",
                  "name": "crimeSeverity",
                  "type": "uint8"
                },
                {
                  "internalType": "string",
                  "name": "offenseDescription",
                  "type": "string"
                },
                {
                  "internalType": "uint16",
                  "name": "offenseCode",
                  "type": "uint16"
                },
                {
                  "internalType": "string",
                  "name": "offenseDate",
                  "type": "string"
                },
                {
                  "internalType": "uint16",
                  "name": "caseId",
                  "type": "uint16"
                },
                {
                  "internalType": "string",
                  "name": "investigationOfficer",
                  "type": "string"
                },
                {
                  "internalType": "string",
                  "name": "courtVerdict",
                  "type": "string"
                }
              ],
              "internalType": "struct CriminalDataSender.CrimeDetails",
              "name": "crime",
              "type": "tuple"
            },
            {
              "components": [
                {
                  "internalType": "string",
                  "name": "prisonLocation",
                  "type": "string"
                },
                {
                  "internalType": "uint16",
                  "name": "prisonId",
                  "type": "uint16"
                },
                {
                  "internalType": "uint16",
                  "name": "tenure",
                  "type": "uint16"
                },
                {
                  "internalType": "uint16",
                  "name": "prisonCode",
                  "type": "uint16"
                }
              ],
              "internalType": "struct CriminalDataSender.PrisonDetails",
              "name": "prison",
              "type": "tuple"
            },
            {
              "internalType": "uint256",
              "name": "timeStamp",
              "type": "uint256"
            }
          ],
          "internalType": "struct CriminalDataSender.CriminalEntity[]",
          "name": "",
          "type": "tuple[]"
        }
      ],
      "stateMutability": "view",
      "type": "function",
      "constant": true
    },
    {
      "inputs": [
        {
          "internalType": "uint56",
          "name": "_cnic",
          "type": "uint56"
        },
        {
          "components": [
            {
              "internalType": "string",
              "name": "name",
              "type": "string"
            },
            {
              "internalType": "string",
              "name": "fatherName",
              "type": "string"
            },
            {
              "internalType": "uint56",
              "name": "cnic",
              "type": "uint56"
            },
            {
              "internalType": "string",
              "name": "location",
              "type": "string"
            },
            {
              "internalType": "string",
              "name": "gender",
              "type": "string"
            },
            {
              "internalType": "string",
              "name": "dob",
              "type": "string"
            }
          ],
          "internalType": "struct CriminalDataSender.PersonalDetails",
          "name": "_personal",
          "type": "tuple"
        },
        {
          "components": [
            {
              "internalType": "uint16",
              "name": "id",
              "type": "uint16"
            },
            {
              "internalType": "enum CriminalDataSender.CrimeSeverity",
              "name": "crimeSeverity",
              "type": "uint8"
            },
            {
              "internalType": "string",
              "name": "offenseDescription",
              "type": "string"
            },
            {
              "internalType": "uint16",
              "name": "offenseCode",
              "type": "uint16"
            },
            {
              "internalType": "string",
              "name": "offenseDate",
              "type": "string"
            },
            {
              "internalType": "uint16",
              "name": "caseId",
              "type": "uint16"
            },
            {
              "internalType": "string",
              "name": "investigationOfficer",
              "type": "string"
            },
            {
              "internalType": "string",
              "name": "courtVerdict",
              "type": "string"
            }
          ],
          "internalType": "struct CriminalDataSender.CrimeDetails",
          "name": "_crime",
          "type": "tuple"
        },
        {
          "components": [
            {
              "internalType": "string",
              "name": "prisonLocation",
              "type": "string"
            },
            {
              "internalType": "uint16",
              "name": "prisonId",
              "type": "uint16"
            },
            {
              "internalType": "uint16",
              "name": "tenure",
              "type": "uint16"
            },
            {
              "internalType": "uint16",
              "name": "prisonCode",
              "type": "uint16"
            }
          ],
          "internalType": "struct CriminalDataSender.PrisonDetails",
          "name": "_prison",
          "type": "tuple"
        }
      ],
      "name": "updateEntity",
      "outputs": [],
      "stateMutability": "nonpayable",
      "type": "function"
    }
  ],
  "bytecode": "0x60a06040526000600360006101000a81548163ffffffff021916908363ffffffff16021790555034801561003257600080fd5b503373ffffffffffffffffffffffffffffffffffffffff1660808173ffffffffffffffffffffffffffffffffffffffff168152505060805161390e610097600039600081816101ef015281816111200152818161115c015261119e015261390e6000f3fe608060405234801561001057600080fd5b50600436106100935760003560e01c8063b6ba75ce11610066578063b6ba75ce14610121578063b72af1d71461013f578063d49ce9c81461016f578063eb15d6741461019f578063ef50a704146101bd57610093565b8063324c930a14610098578063598fc9f0146100b457806375d705e3146100e75780638da5cb5b14610103575b600080fd5b6100b260048036038101906100ad919061290a565b6101ed565b005b6100ce60048036038101906100c991906129c5565b6105c0565b6040516100de9493929190612cec565b60405180910390f35b61010160048036038101906100fc9190612d46565b610ced565b005b61010b61115a565b6040516101189190612e2e565b60405180910390f35b61012961117e565b6040516101369190612e68565b60405180910390f35b610159600480360381019061015491906129c5565b611194565b60405161016691906130d0565b60405180910390f35b6101896004803603810190610184919061311e565b611a0f565b604051610196919061315a565b60405180910390f35b6101a7611a4c565b6040516101b491906132a8565b60405180910390f35b6101d760048036038101906101d291906129c5565b6122d8565b6040516101e4919061315a565b60405180910390f35b7f000000000000000000000000000000000000000000000000000000000000000073ffffffffffffffffffffffffffffffffffffffff163373ffffffffffffffffffffffffffffffffffffffff161461027b576040517f08c379a00000000000000000000000000000000000000000000000000000000081526004016102729061334d565b60405180910390fd5b6000600160008666ffffffffffffff1666ffffffffffffff16815260200190815260200160002060009054906101000a900466ffffffffffffff16905060008166ffffffffffffff1603610304576040517f08c379a00000000000000000000000000000000000000000000000000000000081526004016102fb906133b9565b60405180910390fd5b6040518060800160405280858152602001848152602001838152602001428152506000808366ffffffffffffff1666ffffffffffffff168152602001908152602001600020600082015181600001600082015181600001908161036791906135e5565b50602082015181600101908161037d91906135e5565b5060408201518160020160006101000a81548166ffffffffffffff021916908366ffffffffffffff16021790555060608201518160030190816103c091906135e5565b5060808201518160040190816103d691906135e5565b5060a08201518160050190816103ec91906135e5565b50505060208201518160060160008201518160000160006101000a81548161ffff021916908361ffff16021790555060208201518160000160026101000a81548160ff0219169083600281111561044657610445612b34565b5b0217905550604082015181600101908161046091906135e5565b5060608201518160020160006101000a81548161ffff021916908361ffff160217905550608082015181600301908161049991906135e5565b5060a08201518160040160006101000a81548161ffff021916908361ffff16021790555060c08201518160050190816104d291906135e5565b5060e08201518160060190816104e891906135e5565b505050604082015181600d01600082015181600001908161050991906135e5565b5060208201518160010160006101000a81548161ffff021916908361ffff16021790555060408201518160010160026101000a81548161ffff021916908361ffff16021790555060608201518160010160046101000a81548161ffff021916908361ffff1602179055505050606082015181600f01559050507f08c565e127754a431070c061446b1bc33db1d6a12b7bd51b09dded3ee844dd08816040516105b1919061315a565b60405180910390a15050505050565b6000602052806000526040600020600091509050806000016040518060c00160405290816000820180546105f390613408565b80601f016020809104026020016040519081016040528092919081815260200182805461061f90613408565b801561066c5780601f106106415761010080835404028352916020019161066c565b820191906000526020600020905b81548152906001019060200180831161064f57829003601f168201915b5050505050815260200160018201805461068590613408565b80601f01602080910402602001604051908101604052809291908181526020018280546106b190613408565b80156106fe5780601f106106d3576101008083540402835291602001916106fe565b820191906000526020600020905b8154815290600101906020018083116106e157829003601f168201915b505050505081526020016002820160009054906101000a900466ffffffffffffff1666ffffffffffffff1666ffffffffffffff16815260200160038201805461074690613408565b80601f016020809104026020016040519081016040528092919081815260200182805461077290613408565b80156107bf5780601f10610794576101008083540402835291602001916107bf565b820191906000526020600020905b8154815290600101906020018083116107a257829003601f168201915b505050505081526020016004820180546107d890613408565b80601f016020809104026020016040519081016040528092919081815260200182805461080490613408565b80156108515780601f1061082657610100808354040283529160200191610851565b820191906000526020600020905b81548152906001019060200180831161083457829003601f168201915b5050505050815260200160058201805461086a90613408565b80601f016020809104026020016040519081016040528092919081815260200182805461089690613408565b80156108e35780601f106108b8576101008083540402835291602001916108e3565b820191906000526020600020905b8154815290600101906020018083116108c657829003601f168201915b5050505050815250509080600601604051806101000160405290816000820160009054906101000a900461ffff1661ffff1661ffff1681526020016000820160029054906101000a900460ff16600281111561094257610941612b34565b5b600281111561095457610953612b34565b5b815260200160018201805461096890613408565b80601f016020809104026020016040519081016040528092919081815260200182805461099490613408565b80156109e15780601f106109b6576101008083540402835291602001916109e1565b820191906000526020600020905b8154815290600101906020018083116109c457829003601f168201915b505050505081526020016002820160009054906101000a900461ffff1661ffff1661ffff168152602001600382018054610a1a90613408565b80601f0160208091040260200160405190810160405280929190818152602001828054610a4690613408565b8015610a935780601f10610a6857610100808354040283529160200191610a93565b820191906000526020600020905b815481529060010190602001808311610a7657829003601f168201915b505050505081526020016004820160009054906101000a900461ffff1661ffff1661ffff168152602001600582018054610acc90613408565b80601f0160208091040260200160405190810160405280929190818152602001828054610af890613408565b8015610b455780601f10610b1a57610100808354040283529160200191610b45565b820191906000526020600020905b815481529060010190602001808311610b2857829003601f168201915b50505050508152602001600682018054610b5e90613408565b80601f0160208091040260200160405190810160405280929190818152602001828054610b8a90613408565b8015610bd75780601f10610bac57610100808354040283529160200191610bd7565b820191906000526020600020905b815481529060010190602001808311610bba57829003601f168201915b5050505050815250509080600d01604051806080016040529081600082018054610c0090613408565b80601f0160208091040260200160405190810160405280929190818152602001828054610c2c90613408565b8015610c795780601f10610c4e57610100808354040283529160200191610c79565b820191906000526020600020905b815481529060010190602001808311610c5c57829003601f168201915b505050505081526020016001820160009054906101000a900461ffff1661ffff1661ffff1681526020016001820160029054906101000a900461ffff1661ffff1661ffff1681526020016001820160049054906101000a900461ffff1661ffff1661ffff16815250509080600f0154905084565b6000836040015166ffffffffffffff1603610d3d576040517f08c379a0000000000000000000000000000000000000000000000000000000008152600401610d3490613703565b60405180910390fd5b6000826000015161ffff1603610d88576040517f08c379a0000000000000000000000000000000000000000000000000000000008152600401610d7f9061376f565b60405180910390fd5b604051806080016040528084815260200183815260200182815260200142815250600080846000015161ffff1666ffffffffffffff1681526020019081526020016000206000820151816000016000820151816000019081610dea91906135e5565b506020820151816001019081610e0091906135e5565b5060408201518160020160006101000a81548166ffffffffffffff021916908366ffffffffffffff1602179055506060820151816003019081610e4391906135e5565b506080820151816004019081610e5991906135e5565b5060a0820151816005019081610e6f91906135e5565b50505060208201518160060160008201518160000160006101000a81548161ffff021916908361ffff16021790555060208201518160000160026101000a81548160ff02191690836002811115610ec957610ec8612b34565b5b02179055506040820151816001019081610ee391906135e5565b5060608201518160020160006101000a81548161ffff021916908361ffff1602179055506080820151816003019081610f1c91906135e5565b5060a08201518160040160006101000a81548161ffff021916908361ffff16021790555060c0820151816005019081610f5591906135e5565b5060e0820151816006019081610f6b91906135e5565b505050604082015181600d016000820151816000019081610f8c91906135e5565b5060208201518160010160006101000a81548161ffff021916908361ffff16021790555060408201518160010160026101000a81548161ffff021916908361ffff16021790555060608201518160010160046101000a81548161ffff021916908361ffff1602179055505050606082015181600f0155905050816000015161ffff1660016000856040015166ffffffffffffff1666ffffffffffffff16815260200190815260200160002060006101000a81548166ffffffffffffff021916908366ffffffffffffff160217905550600282600001519080600181540180825580915050600190039060005260206000209060049182820401919006600702909161ffff16909190916101000a81548166ffffffffffffff021916908366ffffffffffffff1602179055506003600081819054906101000a900463ffffffff16809291906110d9906137be565b91906101000a81548163ffffffff021916908363ffffffff160217905550507fde766d924ef28c422bb309ef24be20af84c5e80ebd910c580f77b179abb956be83604001517f000000000000000000000000000000000000000000000000000000000000000060405161114d9291906137ea565b60405180910390a1505050565b7f000000000000000000000000000000000000000000000000000000000000000081565b600360009054906101000a900463ffffffff1681565b61119c6122fe565b7f000000000000000000000000000000000000000000000000000000000000000073ffffffffffffffffffffffffffffffffffffffff163373ffffffffffffffffffffffffffffffffffffffff161461122a576040517f08c379a00000000000000000000000000000000000000000000000000000000081526004016112219061334d565b60405180910390fd5b6000600160008466ffffffffffffff1666ffffffffffffff16815260200190815260200160002060009054906101000a900466ffffffffffffff16905060008166ffffffffffffff16036112b3576040517f08c379a00000000000000000000000000000000000000000000000000000000081526004016112aa906133b9565b60405180910390fd5b6000808266ffffffffffffff1666ffffffffffffff168152602001908152602001600020604051806080016040529081600082016040518060c001604052908160008201805461130290613408565b80601f016020809104026020016040519081016040528092919081815260200182805461132e90613408565b801561137b5780601f106113505761010080835404028352916020019161137b565b820191906000526020600020905b81548152906001019060200180831161135e57829003601f168201915b5050505050815260200160018201805461139490613408565b80601f01602080910402602001604051908101604052809291908181526020018280546113c090613408565b801561140d5780601f106113e25761010080835404028352916020019161140d565b820191906000526020600020905b8154815290600101906020018083116113f057829003601f168201915b505050505081526020016002820160009054906101000a900466ffffffffffffff1666ffffffffffffff1666ffffffffffffff16815260200160038201805461145590613408565b80601f016020809104026020016040519081016040528092919081815260200182805461148190613408565b80156114ce5780601f106114a3576101008083540402835291602001916114ce565b820191906000526020600020905b8154815290600101906020018083116114b157829003601f168201915b505050505081526020016004820180546114e790613408565b80601f016020809104026020016040519081016040528092919081815260200182805461151390613408565b80156115605780601f1061153557610100808354040283529160200191611560565b820191906000526020600020905b81548152906001019060200180831161154357829003601f168201915b5050505050815260200160058201805461157990613408565b80601f01602080910402602001604051908101604052809291908181526020018280546115a590613408565b80156115f25780601f106115c7576101008083540402835291602001916115f2565b820191906000526020600020905b8154815290600101906020018083116115d557829003601f168201915b505050505081525050815260200160068201604051806101000160405290816000820160009054906101000a900461ffff1661ffff1661ffff1681526020016000820160029054906101000a900460ff16600281111561165557611654612b34565b5b600281111561166757611666612b34565b5b815260200160018201805461167b90613408565b80601f01602080910402602001604051908101604052809291908181526020018280546116a790613408565b80156116f45780601f106116c9576101008083540402835291602001916116f4565b820191906000526020600020905b8154815290600101906020018083116116d757829003601f168201915b505050505081526020016002820160009054906101000a900461ffff1661ffff1661ffff16815260200160038201805461172d90613408565b80601f016020809104026020016040519081016040528092919081815260200182805461175990613408565b80156117a65780601f1061177b576101008083540402835291602001916117a6565b820191906000526020600020905b81548152906001019060200180831161178957829003601f168201915b505050505081526020016004820160009054906101000a900461ffff1661ffff1661ffff1681526020016005820180546117df90613408565b80601f016020809104026020016040519081016040528092919081815260200182805461180b90613408565b80156118585780601f1061182d57610100808354040283529160200191611858565b820191906000526020600020905b81548152906001019060200180831161183b57829003601f168201915b5050505050815260200160068201805461187190613408565b80601f016020809104026020016040519081016040528092919081815260200182805461189d90613408565b80156118ea5780601f106118bf576101008083540402835291602001916118ea565b820191906000526020600020905b8154815290600101906020018083116118cd57829003601f168201915b5050505050815250508152602001600d820160405180608001604052908160008201805461191790613408565b80601f016020809104026020016040519081016040528092919081815260200182805461194390613408565b80156119905780601f1061196557610100808354040283529160200191611990565b820191906000526020600020905b81548152906001019060200180831161197357829003601f168201915b505050505081526020016001820160009054906101000a900461ffff1661ffff1661ffff1681526020016001820160029054906101000a900461ffff1661ffff1661ffff1681526020016001820160049054906101000a900461ffff1661ffff1661ffff16815250508152602001600f82015481525050915050919050565b60028181548110611a1f57600080fd5b9060005260206000209060049182820401919006600702915054906101000a900466ffffffffffffff1681565b6060600060028054905011611a96576040517f08c379a0000000000000000000000000000000000000000000000000000000008152600401611a8d9061385f565b60405180910390fd5b600060028054905067ffffffffffffffff811115611ab757611ab6612477565b5b604051908082528060200260200182016040528015611af057816020015b611add6122fe565b815260200190600190039081611ad55790505b50905060005b6002805490508161ffff1610156122d05760008060028361ffff1681548110611b2257611b2161387f565b5b90600052602060002090600491828204019190066007029054906101000a900466ffffffffffffff1666ffffffffffffff1666ffffffffffffff168152602001908152602001600020604051806080016040529081600082016040518060c0016040529081600082018054611b9690613408565b80601f0160208091040260200160405190810160405280929190818152602001828054611bc290613408565b8015611c0f5780601f10611be457610100808354040283529160200191611c0f565b820191906000526020600020905b815481529060010190602001808311611bf257829003601f168201915b50505050508152602001600182018054611c2890613408565b80601f0160208091040260200160405190810160405280929190818152602001828054611c5490613408565b8015611ca15780601f10611c7657610100808354040283529160200191611ca1565b820191906000526020600020905b815481529060010190602001808311611c8457829003601f168201915b505050505081526020016002820160009054906101000a900466ffffffffffffff1666ffffffffffffff1666ffffffffffffff168152602001600382018054611ce990613408565b80601f0160208091040260200160405190810160405280929190818152602001828054611d1590613408565b8015611d625780601f10611d3757610100808354040283529160200191611d62565b820191906000526020600020905b815481529060010190602001808311611d4557829003601f168201915b50505050508152602001600482018054611d7b90613408565b80601f0160208091040260200160405190810160405280929190818152602001828054611da790613408565b8015611df45780601f10611dc957610100808354040283529160200191611df4565b820191906000526020600020905b815481529060010190602001808311611dd757829003601f168201915b50505050508152602001600582018054611e0d90613408565b80601f0160208091040260200160405190810160405280929190818152602001828054611e3990613408565b8015611e865780601f10611e5b57610100808354040283529160200191611e86565b820191906000526020600020905b815481529060010190602001808311611e6957829003601f168201915b505050505081525050815260200160068201604051806101000160405290816000820160009054906101000a900461ffff1661ffff1661ffff1681526020016000820160029054906101000a900460ff166002811115611ee957611ee8612b34565b5b6002811115611efb57611efa612b34565b5b8152602001600182018054611f0f90613408565b80601f0160208091040260200160405190810160405280929190818152602001828054611f3b90613408565b8015611f885780601f10611f5d57610100808354040283529160200191611f88565b820191906000526020600020905b815481529060010190602001808311611f6b57829003601f168201915b505050505081526020016002820160009054906101000a900461ffff1661ffff1661ffff168152602001600382018054611fc190613408565b80601f0160208091040260200160405190810160405280929190818152602001828054611fed90613408565b801561203a5780601f1061200f5761010080835404028352916020019161203a565b820191906000526020600020905b81548152906001019060200180831161201d57829003601f168201915b505050505081526020016004820160009054906101000a900461ffff1661ffff1661ffff16815260200160058201805461207390613408565b80601f016020809104026020016040519081016040528092919081815260200182805461209f90613408565b80156120ec5780601f106120c1576101008083540402835291602001916120ec565b820191906000526020600020905b8154815290600101906020018083116120cf57829003601f168201915b5050505050815260200160068201805461210590613408565b80601f016020809104026020016040519081016040528092919081815260200182805461213190613408565b801561217e5780601f106121535761010080835404028352916020019161217e565b820191906000526020600020905b81548152906001019060200180831161216157829003601f168201915b5050505050815250508152602001600d82016040518060800160405290816000820180546121ab90613408565b80601f01602080910402602001604051908101604052809291908181526020018280546121d790613408565b80156122245780601f106121f957610100808354040283529160200191612224565b820191906000526020600020905b81548152906001019060200180831161220757829003601f168201915b505050505081526020016001820160009054906101000a900461ffff1661ffff1661ffff1681526020016001820160029054906101000a900461ffff1661ffff1661ffff1681526020016001820160049054906101000a900461ffff1661ffff1661ffff16815250508152602001600f82015481525050828261ffff16815181106122b2576122b161387f565b5b602002602001018190525080806122c8906138ae565b915050611af6565b508091505090565b60016020528060005260406000206000915054906101000a900466ffffffffffffff1681565b6040518060800160405280612311612338565b815260200161231e612377565b815260200161232b6123da565b8152602001600081525090565b6040518060c001604052806060815260200160608152602001600066ffffffffffffff1681526020016060815260200160608152602001606081525090565b604051806101000160405280600061ffff168152602001600060028111156123a2576123a1612b34565b5b815260200160608152602001600061ffff16815260200160608152602001600061ffff16815260200160608152602001606081525090565b604051806080016040528060608152602001600061ffff168152602001600061ffff168152602001600061ffff1681525090565b6000604051905090565b600080fd5b600080fd5b600066ffffffffffffff82169050919050565b61243e81612422565b811461244957600080fd5b50565b60008135905061245b81612435565b92915050565b600080fd5b6000601f19601f8301169050919050565b7f4e487b7100000000000000000000000000000000000000000000000000000000600052604160045260246000fd5b6124af82612466565b810181811067ffffffffffffffff821117156124ce576124cd612477565b5b80604052505050565b60006124e161240e565b90506124ed82826124a6565b919050565b600080fd5b600080fd5b600080fd5b600067ffffffffffffffff82111561251c5761251b612477565b5b61252582612466565b9050602081019050919050565b82818337600083830152505050565b600061255461254f84612501565b6124d7565b9050828152602081018484840111156125705761256f6124fc565b5b61257b848285612532565b509392505050565b600082601f830112612598576125976124f7565b5b81356125a8848260208601612541565b91505092915050565b600060c082840312156125c7576125c6612461565b5b6125d160c06124d7565b9050600082013567ffffffffffffffff8111156125f1576125f06124f2565b5b6125fd84828501612583565b600083015250602082013567ffffffffffffffff811115612621576126206124f2565b5b61262d84828501612583565b60208301525060406126418482850161244c565b604083015250606082013567ffffffffffffffff811115612665576126646124f2565b5b61267184828501612583565b606083015250608082013567ffffffffffffffff811115612695576126946124f2565b5b6126a184828501612583565b60808301525060a082013567ffffffffffffffff8111156126c5576126c46124f2565b5b6126d184828501612583565b60a08301525092915050565b600061ffff82169050919050565b6126f4816126dd565b81146126ff57600080fd5b50565b600081359050612711816126eb565b92915050565b6003811061272457600080fd5b50565b60008135905061273681612717565b92915050565b6000610100828403121561275357612752612461565b5b61275e6101006124d7565b9050600061276e84828501612702565b600083015250602061278284828501612727565b602083015250604082013567ffffffffffffffff8111156127a6576127a56124f2565b5b6127b284828501612583565b60408301525060606127c684828501612702565b606083015250608082013567ffffffffffffffff8111156127ea576127e96124f2565b5b6127f684828501612583565b60808301525060a061280a84828501612702565b60a08301525060c082013567ffffffffffffffff81111561282e5761282d6124f2565b5b61283a84828501612583565b60c08301525060e082013567ffffffffffffffff81111561285e5761285d6124f2565b5b61286a84828501612583565b60e08301525092915050565b60006080828403121561288c5761288b612461565b5b61289660806124d7565b9050600082013567ffffffffffffffff8111156128b6576128b56124f2565b5b6128c284828501612583565b60008301525060206128d684828501612702565b60208301525060406128ea84828501612702565b60408301525060606128fe84828501612702565b60608301525092915050565b6000806000806080858703121561292457612923612418565b5b60006129328782880161244c565b945050602085013567ffffffffffffffff8111156129535761295261241d565b5b61295f878288016125b1565b935050604085013567ffffffffffffffff8111156129805761297f61241d565b5b61298c8782880161273c565b925050606085013567ffffffffffffffff8111156129ad576129ac61241d565b5b6129b987828801612876565b91505092959194509250565b6000602082840312156129db576129da612418565b5b60006129e98482850161244c565b91505092915050565b600081519050919050565b600082825260208201905092915050565b60005b83811015612a2c578082015181840152602081019050612a11565b60008484015250505050565b6000612a43826129f2565b612a4d81856129fd565b9350612a5d818560208601612a0e565b612a6681612466565b840191505092915050565b612a7a81612422565b82525050565b600060c0830160008301518482036000860152612a9d8282612a38565b91505060208301518482036020860152612ab78282612a38565b9150506040830151612acc6040860182612a71565b5060608301518482036060860152612ae48282612a38565b91505060808301518482036080860152612afe8282612a38565b91505060a083015184820360a0860152612b188282612a38565b9150508091505092915050565b612b2e816126dd565b82525050565b7f4e487b7100000000000000000000000000000000000000000000000000000000600052602160045260246000fd5b60038110612b7457612b73612b34565b5b50565b6000819050612b8582612b63565b919050565b6000612b9582612b77565b9050919050565b612ba581612b8a565b82525050565b600061010083016000830151612bc46000860182612b25565b506020830151612bd76020860182612b9c565b5060408301518482036040860152612bef8282612a38565b9150506060830151612c046060860182612b25565b5060808301518482036080860152612c1c8282612a38565b91505060a0830151612c3160a0860182612b25565b5060c083015184820360c0860152612c498282612a38565b91505060e083015184820360e0860152612c638282612a38565b9150508091505092915050565b60006080830160008301518482036000860152612c8d8282612a38565b9150506020830151612ca26020860182612b25565b506040830151612cb56040860182612b25565b506060830151612cc86060860182612b25565b508091505092915050565b6000819050919050565b612ce681612cd3565b82525050565b60006080820190508181036000830152612d068187612a80565b90508181036020830152612d1a8186612bab565b90508181036040830152612d2e8185612c70565b9050612d3d6060830184612cdd565b95945050505050565b600080600060608486031215612d5f57612d5e612418565b5b600084013567ffffffffffffffff811115612d7d57612d7c61241d565b5b612d89868287016125b1565b935050602084013567ffffffffffffffff811115612daa57612da961241d565b5b612db68682870161273c565b925050604084013567ffffffffffffffff811115612dd757612dd661241d565b5b612de386828701612876565b9150509250925092565b600073ffffffffffffffffffffffffffffffffffffffff82169050919050565b6000612e1882612ded565b9050919050565b612e2881612e0d565b82525050565b6000602082019050612e436000830184612e1f565b92915050565b600063ffffffff82169050919050565b612e6281612e49565b82525050565b6000602082019050612e7d6000830184612e59565b92915050565b600060c0830160008301518482036000860152612ea08282612a38565b91505060208301518482036020860152612eba8282612a38565b9150506040830151612ecf6040860182612a71565b5060608301518482036060860152612ee78282612a38565b91505060808301518482036080860152612f018282612a38565b91505060a083015184820360a0860152612f1b8282612a38565b9150508091505092915050565b600061010083016000830151612f416000860182612b25565b506020830151612f546020860182612b9c565b5060408301518482036040860152612f6c8282612a38565b9150506060830151612f816060860182612b25565b5060808301518482036080860152612f998282612a38565b91505060a0830151612fae60a0860182612b25565b5060c083015184820360c0860152612fc68282612a38565b91505060e083015184820360e0860152612fe08282612a38565b9150508091505092915050565b6000608083016000830151848203600086015261300a8282612a38565b915050602083015161301f6020860182612b25565b5060408301516130326040860182612b25565b5060608301516130456060860182612b25565b508091505092915050565b61305981612cd3565b82525050565b6000608083016000830151848203600086015261307c8282612e83565b915050602083015184820360208601526130968282612f28565b915050604083015184820360408601526130b08282612fed565b91505060608301516130c56060860182613050565b508091505092915050565b600060208201905081810360008301526130ea818461305f565b905092915050565b6130fb81612cd3565b811461310657600080fd5b50565b600081359050613118816130f2565b92915050565b60006020828403121561313457613133612418565b5b600061314284828501613109565b91505092915050565b61315481612422565b82525050565b600060208201905061316f600083018461314b565b92915050565b600081519050919050565b600082825260208201905092915050565b6000819050602082019050919050565b600060808301600083015184820360008601526131be8282612e83565b915050602083015184820360208601526131d88282612f28565b915050604083015184820360408601526131f28282612fed565b91505060608301516132076060860182613050565b508091505092915050565b600061321e83836131a1565b905092915050565b6000602082019050919050565b600061323e82613175565b6132488185613180565b93508360208202850161325a85613191565b8060005b8581101561329657848403895281516132778582613212565b945061328283613226565b925060208a0199505060018101905061325e565b50829750879550505050505092915050565b600060208201905081810360008301526132c28184613233565b905092915050565b600082825260208201905092915050565b7f4163636573732064656e6965643a204f6e6c79206f776e65722063616e20636160008201527f6c6c20746869732066756e6374696f6e00000000000000000000000000000000602082015250565b60006133376030836132ca565b9150613342826132db565b604082019050919050565b600060208201905081810360008301526133668161332a565b9050919050565b7f4372696d696e616c2064617461206e6f7420666f756e64000000000000000000600082015250565b60006133a36017836132ca565b91506133ae8261336d565b602082019050919050565b600060208201905081810360008301526133d281613396565b9050919050565b7f4e487b7100000000000000000000000000000000000000000000000000000000600052602260045260246000fd5b6000600282049050600182168061342057607f821691505b602082108103613433576134326133d9565b5b50919050565b60008190508160005260206000209050919050565b60006020601f8301049050919050565b600082821b905092915050565b60006008830261349b7fffffffffffffffffffffffffffffffffffffffffffffffffffffffffffffffff8261345e565b6134a5868361345e565b95508019841693508086168417925050509392505050565b6000819050919050565b60006134e26134dd6134d884612cd3565b6134bd565b612cd3565b9050919050565b6000819050919050565b6134fc836134c7565b613510613508826134e9565b84845461346b565b825550505050565b600090565b613525613518565b6135308184846134f3565b505050565b5b818110156135545761354960008261351d565b600181019050613536565b5050565b601f8211156135995761356a81613439565b6135738461344e565b81016020851015613582578190505b61359661358e8561344e565b830182613535565b50505b505050565b600082821c905092915050565b60006135bc6000198460080261359e565b1980831691505092915050565b60006135d583836135ab565b9150826002028217905092915050565b6135ee826129f2565b67ffffffffffffffff81111561360757613606612477565b5b6136118254613408565b61361c828285613558565b600060209050601f83116001811461364f576000841561363d578287015190505b61364785826135c9565b8655506136af565b601f19841661365d86613439565b60005b8281101561368557848901518255600182019150602085019450602081019050613660565b868310156136a2578489015161369e601f8916826135ab565b8355505b6001600288020188555050505b505050505050565b7f496e76616c696420434e49430000000000000000000000000000000000000000600082015250565b60006136ed600c836132ca565b91506136f8826136b7565b602082019050919050565b6000602082019050818103600083015261371c816136e0565b9050919050565b7f496e76616c696420494400000000000000000000000000000000000000000000600082015250565b6000613759600a836132ca565b915061376482613723565b602082019050919050565b600060208201905081810360008301526137888161374c565b9050919050565b7f4e487b7100000000000000000000000000000000000000000000000000000000600052601160045260246000fd5b60006137c982612e49565b915063ffffffff82036137df576137de61378f565b5b600182019050919050565b60006040820190506137ff600083018561314b565b61380c6020830184612e1f565b9392505050565b7f4e6f206372696d696e616c206461746120617661696c61626c65000000000000600082015250565b6000613849601a836132ca565b915061385482613813565b602082019050919050565b600060208201905081810360008301526138788161383c565b9050919050565b7f4e487b7100000000000000000000000000000000000000000000000000000000600052603260045260246000fd5b60006138b9826126dd565b915061ffff82036138cd576138cc61378f565b5b60018201905091905056fea2646970667358221220f1a2ca10112c5c6e86ddbd3116333fba0456d898845d9e9d42ca45db5f2f615c64736f6c63430008130033",
  "immutableReferences": {
    "78": [
      {
        "length": 32,
        "start": 495
      },
      {
        "length": 32,
        "start": 4384
      },
      {
        "length": 32,
        "start": 4444
      },
      {
        "length": 32,
        "start": 4510
      }
    ]
  },
  "source": "// SPDX-License-Identifier: MIT\npragma solidity 0.8.19;\n\n/// @title Criminal Data Sender Contract\n/// @notice This contract allows for creation, retrieval, and updating of criminal data entries.\n/// @dev This contract uses NatSpec for documentation.\ncontract CriminalDataSender {\n    /// @notice CrimeSeverity level of the criminals.\n    enum CrimeSeverity {\n        Low,\n        Medium,\n        High\n    }\n\n    /// @notice Structure of the Criminal entity.\n    /// @dev Entity structure for the criminals.\n    struct PersonalDetails {\n        string name;\n        string fatherName;\n        uint56 cnic;\n        string location;\n        string gender;\n        string dob;\n    }\n\n    struct CrimeDetails {\n        uint16 id;\n        CrimeSeverity crimeSeverity;\n        string offenseDescription;\n        uint16 offenseCode;\n        string offenseDate;\n        uint16 caseId;\n        string investigationOfficer;\n        string courtVerdict;\n    }\n\n    struct PrisonDetails {\n        string prisonLocation;\n        uint16 prisonId;\n        uint16 tenure;\n        uint16 prisonCode;\n    }\n\n    /// @notice Structure to combine personal, crime, and prison details of the criminal.\n    struct CriminalEntity {\n        PersonalDetails personal;\n        CrimeDetails crime;\n        PrisonDetails prison;\n        uint256 timeStamp; // Time of record creation or update\n    }\n\n    /// @notice Mapping to hold the instance of the criminal data.\n    mapping(uint56 => CriminalEntity) public criminalData;\n\n    /// @notice Mapping from CNIC to ID.\n    mapping(uint56 => uint56) public cnicToID;\n\n    /// @notice Array to hold the criminal IDs.\n    uint56[] public criminalIds;\n\n    /// @notice Address of the contract owner.\n    address public immutable owner;\n\n    /// @notice State variable to hold the criminal count.\n    uint32 public criminalCount = 0;\n\n    /// @notice Event emitted when a new entity is created.\n    event EntityCreated(uint56 cnic, address owner);\n\n    /// @notice Event emitted when an entity is updated.\n    event EntityUpdated(uint56 id);\n\n    /// @notice Constructor to set the owner of the contract.\n    constructor() {\n        owner = msg.sender;\n    }\n\n    /// @notice Modifier to restrict functions to the contract owner only.\n    modifier onlyOwner() {\n        require(\n            msg.sender == owner,\n            \"Access denied: Only owner can call this function\"\n        );\n        _;\n    }\n\n    /// @notice Function to create a new criminal entity.\n    /// @param _personal Struct containing personal details of the criminal.\n    /// @param _crime Struct containing crime details of the criminal.\n    /// @param _prison Struct containing prison details of the criminal.\n    function createEntity(\n        PersonalDetails memory _personal,\n        CrimeDetails memory _crime,\n        PrisonDetails memory _prison\n    ) public {\n        require(_personal.cnic != 0, \"Invalid CNIC\");\n        require(_crime.id != 0, \"Invalid ID\");\n        // Create a new CriminalEntity\n        criminalData[_crime.id] = CriminalEntity({\n            personal: _personal,\n            crime: _crime,\n            prison: _prison,\n            timeStamp: block.timestamp\n        });\n\n        // Link CNIC to ID and update mappings\n        cnicToID[_personal.cnic] = _crime.id;\n        criminalIds.push(_crime.id);\n        criminalCount++;\n\n        // Emit event for entity creation\n        emit EntityCreated(_personal.cnic, owner);\n    }\n\n    /// @notice Function to return the criminal entity data (can only be called by the owner).\n    /// @param _cnic CNIC of the entity.\n    /// @return Criminal entity.\n    function getEntity(\n        uint56 _cnic\n    ) public view onlyOwner returns (CriminalEntity memory) {\n        uint56 entityId = cnicToID[_cnic];\n        require(entityId != 0, \"Criminal data not found\");\n        return criminalData[entityId];\n    }\n\n    /// @notice Function to retrieve all the active criminal entities stored in the mapping.\n    /// @return allCriminals An array of all the active criminal entities.\n    function getAllCriminals() public view returns (CriminalEntity[] memory) {\n        require(criminalIds.length > 0, \"No criminal data available\");\n\n        CriminalEntity[] memory allCriminals = new CriminalEntity[](\n            criminalIds.length\n        );\n        for (uint16 i = 0; i < criminalIds.length; i++) {\n            allCriminals[i] = criminalData[criminalIds[i]];\n        }\n        return allCriminals;\n    }\n\n    /// @notice Function to update an existing criminal entity's data.\n    /// @param _cnic CNIC of the entity to update.\n    /// @param _personal Updated personal details of the criminal.\n    /// @param _crime Updated crime details of the criminal.\n    /// @param _prison Updated prison details of the criminal.\n    function updateEntity(\n        uint56 _cnic,\n        PersonalDetails memory _personal,\n        CrimeDetails memory _crime,\n        PrisonDetails memory _prison\n    ) public onlyOwner {\n        uint56 entityId = cnicToID[_cnic];\n        require(entityId != 0, \"Criminal data not found\");\n\n        // Update the criminal data\n        criminalData[entityId] = CriminalEntity({\n            personal: _personal,\n            crime: _crime,\n            prison: _prison,\n            timeStamp: block.timestamp\n        });\n\n        // Emit event for entity update\n        emit EntityUpdated(entityId);\n    }\n}\n",
  "sourcePath": "/home/rogue/Desktop/Final_year_project/src/blockchain/contracts/CriminalDataSender.sol",
  "compiler": {
    "name": "solc",
    "version": "0.8.19+commit.7dd6d404.Emscripten.clang"
  },
  "schemaVersion": "3.4.16",
  "updatedAt": "2024-10-14T14:12:27.562Z",
  "networkType": "ethereum",
  "devdoc": {
    "details": "This contract uses NatSpec for documentation.",
    "kind": "dev",
    "methods": {
      "createEntity((string,string,uint56,string,string,string),(uint16,uint8,string,uint16,string,uint16,string,string),(string,uint16,uint16,uint16))": {
        "params": {
          "_crime": "Struct containing crime details of the criminal.",
          "_personal": "Struct containing personal details of the criminal.",
          "_prison": "Struct containing prison details of the criminal."
        }
      },
      "getAllCriminals()": {
        "returns": {
          "_0": "allCriminals An array of all the active criminal entities."
        }
      },
      "getEntity(uint56)": {
        "params": {
          "_cnic": "CNIC of the entity."
        },
        "returns": {
          "_0": "Criminal entity."
        }
      },
      "updateEntity(uint56,(string,string,uint56,string,string,string),(uint16,uint8,string,uint16,string,uint16,string,string),(string,uint16,uint16,uint16))": {
        "params": {
          "_cnic": "CNIC of the entity to update.",
          "_crime": "Updated crime details of the criminal.",
          "_personal": "Updated personal details of the criminal.",
          "_prison": "Updated prison details of the criminal."
        }
      }
    },
    "title": "Criminal Data Sender Contract",
    "version": 1
  },
  "userdoc": {
    "events": {
      "EntityCreated(uint56,address)": {
        "notice": "Event emitted when a new entity is created."
      },
      "EntityUpdated(uint56)": {
        "notice": "Event emitted when an entity is updated."
      }
    },
    "kind": "user",
    "methods": {
      "cnicToID(uint56)": {
        "notice": "Mapping from CNIC to ID."
      },
      "constructor": {
        "notice": "Constructor to set the owner of the contract."
      },
      "createEntity((string,string,uint56,string,string,string),(uint16,uint8,string,uint16,string,uint16,string,string),(string,uint16,uint16,uint16))": {
        "notice": "Function to create a new criminal entity."
      },
      "criminalCount()": {
        "notice": "State variable to hold the criminal count."
      },
      "criminalData(uint56)": {
        "notice": "Mapping to hold the instance of the criminal data."
      },
      "criminalIds(uint256)": {
        "notice": "Array to hold the criminal IDs."
      },
      "getAllCriminals()": {
        "notice": "Function to retrieve all the active criminal entities stored in the mapping."
      },
      "getEntity(uint56)": {
        "notice": "Function to return the criminal entity data (can only be called by the owner)."
      },
      "owner()": {
        "notice": "Address of the contract owner."
      },
      "updateEntity(uint56,(string,string,uint56,string,string,string),(uint16,uint8,string,uint16,string,uint16,string,string),(string,uint16,uint16,uint16))": {
        "notice": "Function to update an existing criminal entity's data."
      }
    },
    "notice": "This contract allows for creation, retrieval, and updating of criminal data entries.",
    "version": 1
  }
}