{
  "contractName": "CriminalDataSender",
  "abi": [
    {
      "inputs": [],
      "stateMutability": "nonpayable",
      "type": "constructor"
    },
    {
      "anonymous": false,
      "inputs": [
        {
          "indexed": false,
          "internalType": "uint16",
          "name": "id",
          "type": "uint16"
        },
        {
          "indexed": false,
          "internalType": "address",
          "name": "owner",
          "type": "address"
        },
        {
          "indexed": false,
          "internalType": "enum CriminalDataSender.Sensitivity",
          "name": "sensitivity",
          "type": "uint8"
        },
        {
          "indexed": false,
          "internalType": "uint32",
          "name": "CriminalCount",
          "type": "uint32"
        }
      ],
      "name": "EntityCreated",
      "type": "event"
    },
    {
      "anonymous": false,
      "inputs": [
        {
          "indexed": false,
          "internalType": "uint56",
          "name": "_cnic",
          "type": "uint56"
        }
      ],
      "name": "EntityDataNotFound",
      "type": "event"
    },
    {
      "anonymous": false,
      "inputs": [
        {
          "indexed": false,
          "internalType": "uint56",
          "name": "_cnic",
          "type": "uint56"
        }
      ],
      "name": "EntityDeleted",
      "type": "event"
    },
    {
      "anonymous": false,
      "inputs": [
        {
          "indexed": false,
          "internalType": "uint16",
          "name": "id",
          "type": "uint16"
        }
      ],
      "name": "EntityRetrieved",
      "type": "event"
    },
    {
      "inputs": [
        {
          "internalType": "uint56",
          "name": "",
          "type": "uint56"
        }
      ],
      "name": "cnicToID",
      "outputs": [
        {
          "internalType": "uint56",
          "name": "",
          "type": "uint56"
        }
      ],
      "stateMutability": "view",
      "type": "function",
      "constant": true
    },
    {
      "inputs": [
        {
          "internalType": "uint56",
          "name": "",
          "type": "uint56"
        }
      ],
      "name": "criminalData",
      "outputs": [
        {
          "internalType": "string",
          "name": "name",
          "type": "string"
        },
        {
          "internalType": "uint16",
          "name": "id",
          "type": "uint16"
        },
        {
          "internalType": "uint56",
          "name": "cnic",
          "type": "uint56"
        },
        {
          "internalType": "enum CriminalDataSender.Sensitivity",
          "name": "sensitivity",
          "type": "uint8"
        },
        {
          "internalType": "uint256",
          "name": "timeStamp",
          "type": "uint256"
        }
      ],
      "stateMutability": "view",
      "type": "function",
      "constant": true
    },
    {
      "inputs": [],
      "name": "owner",
      "outputs": [
        {
          "internalType": "address",
          "name": "",
          "type": "address"
        }
      ],
      "stateMutability": "view",
      "type": "function",
      "constant": true
    },
    {
      "inputs": [
        {
          "internalType": "string",
          "name": "_name",
          "type": "string"
        },
        {
          "internalType": "uint16",
          "name": "_id",
          "type": "uint16"
        },
        {
          "internalType": "uint56",
          "name": "_cnic",
          "type": "uint56"
        },
        {
          "internalType": "enum CriminalDataSender.Sensitivity",
          "name": "sensitivity",
          "type": "uint8"
        }
      ],
      "name": "CreateEntity",
      "outputs": [],
      "stateMutability": "nonpayable",
      "type": "function"
    },
    {
      "inputs": [
        {
          "internalType": "uint56",
          "name": "_cnic",
          "type": "uint56"
        }
      ],
      "name": "getEntity",
      "outputs": [
        {
          "components": [
            {
              "internalType": "string",
              "name": "name",
              "type": "string"
            },
            {
              "internalType": "uint16",
              "name": "id",
              "type": "uint16"
            },
            {
              "internalType": "uint56",
              "name": "cnic",
              "type": "uint56"
            },
            {
              "internalType": "enum CriminalDataSender.Sensitivity",
              "name": "sensitivity",
              "type": "uint8"
            },
            {
              "internalType": "uint256",
              "name": "timeStamp",
              "type": "uint256"
            }
          ],
          "internalType": "struct CriminalDataSender.Entity",
          "name": "",
          "type": "tuple"
        },
        {
          "internalType": "string",
          "name": "",
          "type": "string"
        }
      ],
      "stateMutability": "view",
      "type": "function",
      "constant": true
    },
    {
      "inputs": [],
      "name": "getAllCriminals",
      "outputs": [
        {
          "components": [
            {
              "internalType": "string",
              "name": "name",
              "type": "string"
            },
            {
              "internalType": "uint16",
              "name": "id",
              "type": "uint16"
            },
            {
              "internalType": "uint56",
              "name": "cnic",
              "type": "uint56"
            },
            {
              "internalType": "enum CriminalDataSender.Sensitivity",
              "name": "sensitivity",
              "type": "uint8"
            },
            {
              "internalType": "uint256",
              "name": "timeStamp",
              "type": "uint256"
            }
          ],
          "internalType": "struct CriminalDataSender.Entity[]",
          "name": "",
          "type": "tuple[]"
        }
      ],
      "stateMutability": "view",
      "type": "function",
      "constant": true
    },
    {
      "inputs": [
        {
          "internalType": "uint56",
          "name": "_cnic",
          "type": "uint56"
        }
      ],
      "name": "deleteEntity",
      "outputs": [],
      "stateMutability": "nonpayable",
      "type": "function"
    }
  ],
  "bytecode": "0x60a06040526001600260006101000a81548163ffffffff021916908363ffffffff16021790555034801561003257600080fd5b503373ffffffffffffffffffffffffffffffffffffffff1660808173ffffffffffffffffffffffffffffffffffffffff1660601b8152505060805160601c6116476100a460003960008181610279015281816102a70152818161071a0152818161076f0152610a4701526116476000f3fe608060405234801561001057600080fd5b506004361061007d5760003560e01c8063bf220b421161005b578063bf220b4214610105578063eb15d67414610121578063edc038c91461013f578063ef50a7041461015b5761007d565b8063598fc9f0146100825780638da5cb5b146100b6578063b72af1d7146100d4575b600080fd5b61009c60048036038101906100979190610d41565b61018b565b6040516100ad959493929190610ec3565b60405180910390f35b6100be610277565b6040516100cb9190610f5e565b60405180910390f35b6100ee60048036038101906100e99190610d41565b61029b565b6040516100fc929190611075565b60405180910390f35b61011f600480360381019061011a9190611232565b610558565b005b61012961076b565b60405161013691906113ed565b60405180910390f35b61015960048036038101906101549190610d41565b610a45565b005b61017560048036038101906101709190610d41565b610b97565b604051610182919061140f565b60405180910390f35b60006020528060005260406000206000915090508060000180546101ae90611459565b80601f01602080910402602001604051908101604052809291908181526020018280546101da90611459565b80156102275780601f106101fc57610100808354040283529160200191610227565b820191906000526020600020905b81548152906001019060200180831161020a57829003601f168201915b5050505050908060010160009054906101000a900461ffff16908060010160029054906101000a900466ffffffffffffff16908060010160099054906101000a900460ff16908060020154905085565b7f000000000000000000000000000000000000000000000000000000000000000081565b6102a3610bbd565b60607f000000000000000000000000000000000000000000000000000000000000000073ffffffffffffffffffffffffffffffffffffffff163373ffffffffffffffffffffffffffffffffffffffff16146102fd57600080fd5b6000600160008566ffffffffffffff1666ffffffffffffff16815260200190815260200160002060009054906101000a900466ffffffffffffff16905060008166ffffffffffffff1614156103e5576040518060a00160405280604051806020016040528060008152508152602001600061ffff168152602001600066ffffffffffffff1681526020016000600281111561039b5761039a610e33565b5b815260200160008152506040518060400160405280601781526020017f4372696d696e616c2064617461206e6f7420666f756e640000000000000000008152509250925050610553565b6000808266ffffffffffffff1666ffffffffffffff168152602001908152602001600020806040518060a001604052908160008201805461042590611459565b80601f016020809104026020016040519081016040528092919081815260200182805461045190611459565b801561049e5780601f106104735761010080835404028352916020019161049e565b820191906000526020600020905b81548152906001019060200180831161048157829003601f168201915b505050505081526020016001820160009054906101000a900461ffff1661ffff1661ffff1681526020016001820160029054906101000a900466ffffffffffffff1666ffffffffffffff1666ffffffffffffff1681526020016001820160099054906101000a900460ff16600281111561051b5761051a610e33565b5b600281111561052d5761052c610e33565b5b815260200160028201548152505090506040518060200160405280600081525092509250505b915091565b6040518060a001604052808581526020018461ffff1681526020018366ffffffffffffff16815260200182600281111561059557610594610e33565b5b8152602001428152506000808561ffff1666ffffffffffffff16815260200190815260200160002060008201518160000190805190602001906105d9929190610c0b565b5060208201518160010160006101000a81548161ffff021916908361ffff16021790555060408201518160010160026101000a81548166ffffffffffffff021916908366ffffffffffffff16021790555060608201518160010160096101000a81548160ff0219169083600281111561065557610654610e33565b5b0217905550608082015181600201559050508261ffff16600160008466ffffffffffffff1666ffffffffffffff16815260200190815260200160002060006101000a81548166ffffffffffffff021916908366ffffffffffffff1602179055506002600081819054906101000a900463ffffffff16809291906106d7906114ca565b91906101000a81548163ffffffff021916908363ffffffff160217905550507faad7bfa66faa5034cf2e2b30b29b8780f3044e6be79aafcbb10d9be50bfd8344837f000000000000000000000000000000000000000000000000000000000000000083600260009054906101000a900463ffffffff1660405161075d9493929190611506565b60405180910390a150505050565b60607f000000000000000000000000000000000000000000000000000000000000000073ffffffffffffffffffffffffffffffffffffffff163373ffffffffffffffffffffffffffffffffffffffff16146107c557600080fd5b6000600260009054906101000a900463ffffffff1663ffffffff161415610821576040517f08c379a000000000000000000000000000000000000000000000000000000000815260040161081890611597565b60405180910390fd5b6000600260009054906101000a900463ffffffff1663ffffffff1667ffffffffffffffff811115610855576108546110b6565b5b60405190808252806020026020018201604052801561088e57816020015b61087b610bbd565b8152602001906001900390816108735790505b50905060005b600260009054906101000a900463ffffffff1663ffffffff168161ffff161015610a3d576000808261ffff1666ffffffffffffff1681526020019081526020016000206040518060a00160405290816000820180546108f290611459565b80601f016020809104026020016040519081016040528092919081815260200182805461091e90611459565b801561096b5780601f106109405761010080835404028352916020019161096b565b820191906000526020600020905b81548152906001019060200180831161094e57829003601f168201915b505050505081526020016001820160009054906101000a900461ffff1661ffff1661ffff1681526020016001820160029054906101000a900466ffffffffffffff1666ffffffffffffff1666ffffffffffffff1681526020016001820160099054906101000a900460ff1660028111156109e8576109e7610e33565b5b60028111156109fa576109f9610e33565b5b8152602001600282015481525050828261ffff1681518110610a1f57610a1e6115b7565b5b60200260200101819052508080610a35906115e6565b915050610894565b508091505090565b7f000000000000000000000000000000000000000000000000000000000000000073ffffffffffffffffffffffffffffffffffffffff163373ffffffffffffffffffffffffffffffffffffffff1614610a9d57600080fd5b6000600160008366ffffffffffffff1666ffffffffffffff16815260200190815260200160002060009054906101000a900466ffffffffffffff1690507f658bab0399a2a605a3f14e6b6c747a1d1a5cf4fbef0f8178a81a85646a81554c82604051610b09919061140f565b60405180910390a16000808266ffffffffffffff1666ffffffffffffff16815260200190815260200160002060008082016000610b469190610c91565b6001820160006101000a81549061ffff02191690556001820160026101000a81549066ffffffffffffff02191690556001820160096101000a81549060ff0219169055600282016000905550505050565b60016020528060005260406000206000915054906101000a900466ffffffffffffff1681565b6040518060a0016040528060608152602001600061ffff168152602001600066ffffffffffffff16815260200160006002811115610bfe57610bfd610e33565b5b8152602001600081525090565b828054610c1790611459565b90600052602060002090601f016020900481019282610c395760008555610c80565b82601f10610c5257805160ff1916838001178555610c80565b82800160010185558215610c80579182015b82811115610c7f578251825591602001919060010190610c64565b5b509050610c8d9190610cd1565b5090565b508054610c9d90611459565b6000825580601f10610caf5750610cce565b601f016020900490600052602060002090810190610ccd9190610cd1565b5b50565b5b80821115610cea576000816000905550600101610cd2565b5090565b6000604051905090565b600080fd5b600080fd5b600066ffffffffffffff82169050919050565b610d1e81610d02565b8114610d2957600080fd5b50565b600081359050610d3b81610d15565b92915050565b600060208284031215610d5757610d56610cf8565b5b6000610d6584828501610d2c565b91505092915050565b600081519050919050565b600082825260208201905092915050565b60005b83811015610da8578082015181840152602081019050610d8d565b83811115610db7576000848401525b50505050565b6000601f19601f8301169050919050565b6000610dd982610d6e565b610de38185610d79565b9350610df3818560208601610d8a565b610dfc81610dbd565b840191505092915050565b600061ffff82169050919050565b610e1e81610e07565b82525050565b610e2d81610d02565b82525050565b7f4e487b7100000000000000000000000000000000000000000000000000000000600052602160045260246000fd5b60038110610e7357610e72610e33565b5b50565b6000819050610e8482610e62565b919050565b6000610e9482610e76565b9050919050565b610ea481610e89565b82525050565b6000819050919050565b610ebd81610eaa565b82525050565b600060a0820190508181036000830152610edd8188610dce565b9050610eec6020830187610e15565b610ef96040830186610e24565b610f066060830185610e9b565b610f136080830184610eb4565b9695505050505050565b600073ffffffffffffffffffffffffffffffffffffffff82169050919050565b6000610f4882610f1d565b9050919050565b610f5881610f3d565b82525050565b6000602082019050610f736000830184610f4f565b92915050565b600082825260208201905092915050565b6000610f9582610d6e565b610f9f8185610f79565b9350610faf818560208601610d8a565b610fb881610dbd565b840191505092915050565b610fcc81610e07565b82525050565b610fdb81610d02565b82525050565b610fea81610e89565b82525050565b610ff981610eaa565b82525050565b600060a083016000830151848203600086015261101c8282610f8a565b91505060208301516110316020860182610fc3565b5060408301516110446040860182610fd2565b5060608301516110576060860182610fe1565b50608083015161106a6080860182610ff0565b508091505092915050565b6000604082019050818103600083015261108f8185610fff565b905081810360208301526110a38184610dce565b90509392505050565b600080fd5b600080fd5b7f4e487b7100000000000000000000000000000000000000000000000000000000600052604160045260246000fd5b6110ee82610dbd565b810181811067ffffffffffffffff8211171561110d5761110c6110b6565b5b80604052505050565b6000611120610cee565b905061112c82826110e5565b919050565b600067ffffffffffffffff82111561114c5761114b6110b6565b5b61115582610dbd565b9050602081019050919050565b82818337600083830152505050565b600061118461117f84611131565b611116565b9050828152602081018484840111156111a05761119f6110b1565b5b6111ab848285611162565b509392505050565b600082601f8301126111c8576111c76110ac565b5b81356111d8848260208601611171565b91505092915050565b6111ea81610e07565b81146111f557600080fd5b50565b600081359050611207816111e1565b92915050565b6003811061121a57600080fd5b50565b60008135905061122c8161120d565b92915050565b6000806000806080858703121561124c5761124b610cf8565b5b600085013567ffffffffffffffff81111561126a57611269610cfd565b5b611276878288016111b3565b9450506020611287878288016111f8565b935050604061129887828801610d2c565b92505060606112a98782880161121d565b91505092959194509250565b600081519050919050565b600082825260208201905092915050565b6000819050602082019050919050565b600060a08301600083015184820360008601526112fe8282610f8a565b91505060208301516113136020860182610fc3565b5060408301516113266040860182610fd2565b5060608301516113396060860182610fe1565b50608083015161134c6080860182610ff0565b508091505092915050565b600061136383836112e1565b905092915050565b6000602082019050919050565b6000611383826112b5565b61138d81856112c0565b93508360208202850161139f856112d1565b8060005b858110156113db57848403895281516113bc8582611357565b94506113c78361136b565b925060208a019950506001810190506113a3565b50829750879550505050505092915050565b600060208201905081810360008301526114078184611378565b905092915050565b60006020820190506114246000830184610e24565b92915050565b7f4e487b7100000000000000000000000000000000000000000000000000000000600052602260045260246000fd5b6000600282049050600182168061147157607f821691505b602082108114156114855761148461142a565b5b50919050565b7f4e487b7100000000000000000000000000000000000000000000000000000000600052601160045260246000fd5b600063ffffffff82169050919050565b60006114d5826114ba565b915063ffffffff8214156114ec576114eb61148b565b5b600182019050919050565b611500816114ba565b82525050565b600060808201905061151b6000830187610e15565b6115286020830186610f4f565b6115356040830185610e9b565b61154260608301846114f7565b95945050505050565b7f64617461206e6f7420666f756e64000000000000000000000000000000000000600082015250565b6000611581600e83610d79565b915061158c8261154b565b602082019050919050565b600060208201905081810360008301526115b081611574565b9050919050565b7f4e487b7100000000000000000000000000000000000000000000000000000000600052603260045260246000fd5b60006115f182610e07565b915061ffff8214156116065761160561148b565b5b60018201905091905056fea2646970667358221220d0a275e9d4c1687d4bec638b707cede909dde64b2d685cbb5718b140998ff74c64736f6c63430008080033",
  "immutableReferences": {
    "34": [
      {
        "length": 32,
        "start": 633
      },
      {
        "length": 32,
        "start": 679
      },
      {
        "length": 32,
        "start": 1818
      },
      {
        "length": 32,
        "start": 1903
      },
      {
        "length": 32,
        "start": 2631
      }
    ]
  },
  "source": "// SPDX-License-Identifier: MIT\npragma solidity ^0.8.8;\n\n/// @title Criminal Data Sender Contract\n/// @notice This contract allows for the creation, retrieval, and deletion of criminal data entities.\n/// @dev This contract uses NatSpec for documentation and includes owner-only functions.\ncontract CriminalDataSender {\n    /// @notice Sensitivity levels for criminal data\n    enum Sensitivity {\n        Low,\n        Medium,\n        High\n    }\n\n    /// @notice Structure of the criminal Entity\n    /// @dev Entity structure to store criminal data\n    struct Entity {\n        string name;\n        uint16 id;\n        uint56 cnic;\n        Sensitivity sensitivity;\n        uint256 timeStamp;\n    }\n    /// @notice mapping to hold instances of criminal entity data\n    mapping(uint56 => Entity) public criminalData;\n\n    /// @notice mapping from cnic to Id\n    mapping(uint56 => uint56) public cnicToID;\n\n    /// @notice Address of the contract owner\n    address public immutable owner; //state variable to store the address of the onwer\n\n    /// @notice Count of criminals\n    uint32 criminalCount = 1;\n\n    /// @notice Event emitted when a new entity is created\n    /// @param id The ID of the entity\n    /// @param owner The address of the contract owner\n    /// @param sensitivity The sensitivity level of the entity\n    /// @param CriminalCount The current count of criminals\n    event EntityCreated(\n        uint16 id,\n        address owner,\n        Sensitivity sensitivity,\n        uint32 CriminalCount\n    );\n\n    /// @notice Event emitted when an entity is retrieved\n    /// @param id The ID of the entity\n    event EntityRetrieved(uint16 id);\n\n    /// @notice Event emitted when an entity is deleted\n    /// @param _cnic The CNIC of the deleted entity\n    event EntityDeleted(uint56 _cnic);\n\n    /// @notice Event emitted when entity data is not found\n    /// @param _cnic The CNIC for which data was not found\n    event EntityDataNotFound(uint56 _cnic);\n\n    /// @notice Constructor to set the owner of the contract\n    /// @dev Sets the contract deployer as the owner\n    constructor() {\n        //his simply assign the address of the contarct to the owner after the contract is beign deployed\n        owner = msg.sender;\n    }\n\n    /// @notice Modifier to restrict functions to the contract owner\n    modifier onlyOwner() {\n        require(msg.sender == owner); //this checks if the address of the account who called the contract is == to the add of the owner then its true\n        _;\n    }\n\n    //.1==>\n    /// @notice Function to create a new criminal entity\n    /// @param _name The name of the criminal\n    /// @param _id The ID of the criminal\n    /// @param _cnic The CNIC of the criminal\n    /// @param sensitivity The sensitivity level of the criminal\n    /// @dev Adds a new criminal entity to the mapping and emits an EntityCreated event\n    function CreateEntity(\n        string memory _name,\n        uint16 _id,\n        uint56 _cnic,\n        Sensitivity sensitivity\n    ) public {\n        criminalData[_id] = Entity(\n            _name,\n            _id,\n            _cnic,\n            sensitivity,\n            block.timestamp\n        );\n        cnicToID[_cnic] = _id;\n        criminalCount++;\n        emit EntityCreated(_id, owner, sensitivity, criminalCount);\n    }\n\n    //.2==>\n    /// @notice Function to return data of a criminal (can only be called by the owner)\n    /// @param _cnic The CNIC of the criminal\n    /// @return The criminal entity and a message if not found\n    function getEntity(\n        uint56 _cnic\n    ) public view onlyOwner returns (Entity memory, string memory) {\n        uint56 EntityId = cnicToID[_cnic];\n        if (EntityId == 0) {\n            return (\n                Entity(\"\", 0, 0, Sensitivity.Low, 0),\n                \"Criminal data not found\"\n            );\n        }\n        return (criminalData[EntityId], \"\");\n    }\n\n    //.3==>\n    /// @notice Function to get all criminal entities (can only be called by the owner)\n    /// @return An array of all criminal entities\n    function getAllCriminals() public view onlyOwner returns (Entity[] memory) {\n        require(criminalCount != 0, \"data not found\");\n        Entity[] memory allCriminals = new Entity[](criminalCount);\n        for (uint16 i = 0; i < criminalCount; i++) {\n            allCriminals[i] = criminalData[i];\n        }\n        return allCriminals;\n    }\n\n    //.4==>\n    /// @notice Function to delete a criminal entity of specified CNIC (can only be called by the owner)\n    /// @param _cnic The CNIC of the criminal to delete\n    /// @dev Deletes the criminal entity from the mapping and emits an EntityDeleted event\n    function deleteEntity(uint56 _cnic) public onlyOwner {\n        uint56 EntityId = cnicToID[_cnic];\n        emit EntityDeleted(_cnic);\n        delete criminalData[EntityId];\n    }\n}\n\n// pragma solidity ^0.8.0;\n\n// contract SecureCriminalData {\n\n//     // Define an enum to represent data sensitivity levels\n//     enum Sensitivity { Low, Medium, High }\n\n//     // Structure to hold criminal entity data with access control\n//     struct Entity {\n//         bytes32 id;\n//         bytes32 dataHash; // Store a hash of the actual data for efficiency\n//         address owner;  // Address authorized to manage the entity\n//         Sensitivity sensitivity;\n//     }\n\n//     mapping(bytes32 => Entity) public entities; // Mapping of entity IDs to their data\n//     mapping(address => bytes32[]) public authorizedEntities; // Track authorized entities for an address\n//     address public immutable owner;  // Contract owner for system administration\n\n//     // Event emitted on entity creation\n//     event EntityCreated(bytes32 indexed id, address owner, Sensitivity sensitivity);\n//     // Event emitted on entity deletion (successful or unauthorized)\n//     event EntityDeletionAttempt(bytes32 indexed id, address attemptedBy);\n//     // Event emitted on successful entity retrieval\n//     event EntityRetrieved(bytes32 indexed id);\n\n//     // Constructor (automatically called during deployment)\n//     constructor() {\n//         owner = msg.sender;\n//     }\n\n//     // Function to create a new criminal entity\n//     function createEntity(bytes32 dataHash, Sensitivity sensitivity) public {\n//         require(msg.sender == owner, \"Only contract owner can create entities\");\n\n//         bytes32 id = keccak256(abi.encodePacked(msg.sender, blockhash(block.number - 1), dataHash));\n//         entities[id] = Entity(id, dataHash, msg.sender, sensitivity);\n//         authorizedEntities[msg.sender].push(id);\n\n//         emit EntityCreated(id, msg.sender, sensitivity);\n//     }\n\n//     // Function to retrieve an entity's data hash (for authorized users)\n//     function retrieveEntity(bytes32 id) public view returns (bytes32) {\n//         require(isAuthorized(msg.sender, id), \"Unauthorized access\");\n//         return entities[id].dataHash;\n//     }\n\n//     // Function to mark an entity for deletion (requires confirmation for High sensitivity)\n//     function deleteEntity(bytes32 id) public {\n//         require(isAuthorized(msg.sender, id), \"Unauthorized access\");\n\n//         if (entities[id].sensitivity == Sensitivity.High) {\n//             // Implement a multi-signature confirmation process for high-sensitivity deletions\n//             // ... (replace with your desired confirmation logic)\n//         } else {\n//             delete entities[id];\n//             removeFromAuthorized(msg.sender, id);\n//             emit EntityDeletionAttempt(id, msg.sender);\n//         }\n//     }\n\n//     // Helper function to check if an address is authorized for an entity\n//     function isAuthorized(address user, bytes32 id) public view returns (bool) {\n//         return user == entities[id].owner || contains(authorizedEntities[user], id);\n//     }\n\n//     // Helper function to check if an element exists in a dynamic array\n//     function contains(bytes32[] memory arr, bytes32 value) internal pure returns (bool) {\n//         for (uint i = 0; i < arr.length; i++) {\n//             if (arr[i] == value) {\n//                 return true;\n//             }\n//         }\n//         return false;\n//     }\n\n//     // Helper function to remove an entity ID from an authorized list (internal use)\n//     function removeFromAuthorized(address user, bytes32 id) internal {\n//         bytes32[] storage authorized = authorizedEntities[user];\n//         for (uint i = 0; i < authorized.length; i++) {\n//             if (authorized[i] == id) {\n//                 authorized[i] = authorized[authorized.length - 1];\n//                 authorized.pop();\n//                 break;\n//             }\n//         }\n//     }\n// }\n",
  "sourcePath": "/home/rogue/Desktop/Final-year-project/src/blockchain/contracts/CriminalDataSender.sol",
  "compiler": {
    "name": "solc",
    "version": "0.8.8+commit.dddeac2f.Emscripten.clang"
  },
  "schemaVersion": "3.4.16",
  "updatedAt": "2024-08-21T05:36:35.515Z",
  "networkType": "ethereum",
  "devdoc": {
    "details": "This contract uses NatSpec for documentation and includes owner-only functions.",
    "events": {
      "EntityCreated(uint16,address,uint8,uint32)": {
        "params": {
          "CriminalCount": "The current count of criminals",
          "id": "The ID of the entity",
          "owner": "The address of the contract owner",
          "sensitivity": "The sensitivity level of the entity"
        }
      },
      "EntityDataNotFound(uint56)": {
        "params": {
          "_cnic": "The CNIC for which data was not found"
        }
      },
      "EntityDeleted(uint56)": {
        "params": {
          "_cnic": "The CNIC of the deleted entity"
        }
      },
      "EntityRetrieved(uint16)": {
        "params": {
          "id": "The ID of the entity"
        }
      }
    },
    "kind": "dev",
    "methods": {
      "CreateEntity(string,uint16,uint56,uint8)": {
        "details": "Adds a new criminal entity to the mapping and emits an EntityCreated event",
        "params": {
          "_cnic": "The CNIC of the criminal",
          "_id": "The ID of the criminal",
          "_name": "The name of the criminal",
          "sensitivity": "The sensitivity level of the criminal"
        }
      },
      "constructor": {
        "details": "Sets the contract deployer as the owner"
      },
      "deleteEntity(uint56)": {
        "details": "Deletes the criminal entity from the mapping and emits an EntityDeleted event",
        "params": {
          "_cnic": "The CNIC of the criminal to delete"
        }
      },
      "getAllCriminals()": {
        "returns": {
          "_0": "An array of all criminal entities"
        }
      },
      "getEntity(uint56)": {
        "params": {
          "_cnic": "The CNIC of the criminal"
        },
        "returns": {
          "_0": "The criminal entity and a message if not found"
        }
      }
    },
    "title": "Criminal Data Sender Contract",
    "version": 1
  },
  "userdoc": {
    "events": {
      "EntityCreated(uint16,address,uint8,uint32)": {
        "notice": "Event emitted when a new entity is created"
      },
      "EntityDataNotFound(uint56)": {
        "notice": "Event emitted when entity data is not found"
      },
      "EntityDeleted(uint56)": {
        "notice": "Event emitted when an entity is deleted"
      },
      "EntityRetrieved(uint16)": {
        "notice": "Event emitted when an entity is retrieved"
      }
    },
    "kind": "user",
    "methods": {
      "CreateEntity(string,uint16,uint56,uint8)": {
        "notice": "Function to create a new criminal entity"
      },
      "cnicToID(uint56)": {
        "notice": "mapping from cnic to Id"
      },
      "constructor": {
        "notice": "Constructor to set the owner of the contract"
      },
      "criminalData(uint56)": {
        "notice": "mapping to hold instances of criminal entity data"
      },
      "deleteEntity(uint56)": {
        "notice": "Function to delete a criminal entity of specified CNIC (can only be called by the owner)"
      },
      "getAllCriminals()": {
        "notice": "Function to get all criminal entities (can only be called by the owner)"
      },
      "getEntity(uint56)": {
        "notice": "Function to return data of a criminal (can only be called by the owner)"
      },
      "owner()": {
        "notice": "Address of the contract owner"
      }
    },
    "notice": "This contract allows for the creation, retrieval, and deletion of criminal data entities.",
    "version": 1
  }
}